{
  "contractName": "DetailerContract",
  "abi": [
    {
      "constant": true,
      "inputs": [
        {
          "name": "",
          "type": "address"
        }
      ],
      "name": "addressToProductId",
      "outputs": [
        {
          "name": "",
          "type": "uint16"
        }
      ],
      "payable": false,
      "stateMutability": "view",
      "type": "function"
    },
    {
      "constant": true,
      "inputs": [
        {
          "name": "",
          "type": "uint256"
        }
      ],
      "name": "detailerAccts",
      "outputs": [
        {
          "name": "",
          "type": "address"
        }
      ],
      "payable": false,
      "stateMutability": "view",
      "type": "function"
    },
    {
      "constant": true,
      "inputs": [
        {
          "name": "",
          "type": "uint16"
        }
      ],
      "name": "products",
      "outputs": [
        {
          "name": "commonName",
          "type": "string"
        },
        {
          "name": "country",
          "type": "string"
        },
        {
          "name": "quantity",
          "type": "uint16"
        },
        {
          "name": "company",
          "type": "string"
        },
        {
          "name": "datetime",
          "type": "uint256"
        }
      ],
      "payable": false,
      "stateMutability": "view",
      "type": "function"
    },
    {
      "constant": false,
      "inputs": [
        {
          "name": "_prodId",
          "type": "uint16"
        },
        {
          "name": "_commonName",
          "type": "string"
        },
        {
          "name": "_country",
          "type": "string"
        },
        {
          "name": "_quantity",
          "type": "uint16"
        },
        {
          "name": "_company",
          "type": "string"
        }
      ],
      "name": "addLink",
      "outputs": [],
      "payable": false,
      "stateMutability": "nonpayable",
      "type": "function"
    },
    {
      "constant": true,
      "inputs": [
        {
          "name": "_prodId",
          "type": "uint16"
        }
      ],
      "name": "getTransactionByProdId",
      "outputs": [
        {
          "name": "",
          "type": "uint16"
        },
        {
          "name": "",
          "type": "string"
        },
        {
          "name": "",
          "type": "string"
        },
        {
          "name": "",
          "type": "uint16"
        },
        {
          "name": "",
          "type": "string"
        },
        {
          "name": "",
          "type": "uint256"
        }
      ],
      "payable": false,
      "stateMutability": "view",
      "type": "function"
    }
  ],
  "bytecode": "0x608060405234801561001057600080fd5b50610cb0806100206000396000f3fe608060405260043610610066577c01000000000000000000000000000000000000000000000000000000006000350463650c53d6811461006b57806374db966f146102025780638851b09a14610259578063964c7fc3146102ac578063f61050e714610434575b600080fd5b34801561007757600080fd5b506100996004803603602081101561008e57600080fd5b503561ffff1661060e565b604051808761ffff1661ffff16815260200180602001806020018661ffff1661ffff16815260200180602001858152602001848103845289818151815260200191508051906020019080838360005b838110156101005781810151838201526020016100e8565b50505050905090810190601f16801561012d5780820380516001836020036101000a031916815260200191505b5084810383528851815288516020918201918a019080838360005b83811015610160578181015183820152602001610148565b50505050905090810190601f16801561018d5780820380516001836020036101000a031916815260200191505b50848103825286518152865160209182019188019080838360005b838110156101c05781810151838201526020016101a8565b50505050905090810190601f1680156101ed5780820380516001836020036101000a031916815260200191505b50995050505050505050505060405180910390f35b34801561020e57600080fd5b506102426004803603602081101561022557600080fd5b503573ffffffffffffffffffffffffffffffffffffffff1661084b565b6040805161ffff9092168252519081900360200190f35b34801561026557600080fd5b506102836004803603602081101561027c57600080fd5b5035610861565b6040805173ffffffffffffffffffffffffffffffffffffffff9092168252519081900360200190f35b3480156102b857600080fd5b506102da600480360360208110156102cf57600080fd5b503561ffff16610896565b6040518080602001806020018661ffff1661ffff16815260200180602001858152602001848103845289818151815260200191508051906020019080838360005b8381101561033357818101518382015260200161031b565b50505050905090810190601f1680156103605780820380516001836020036101000a031916815260200191505b5084810383528851815288516020918201918a019080838360005b8381101561039357818101518382015260200161037b565b50505050905090810190601f1680156103c05780820380516001836020036101000a031916815260200191505b50848103825286518152865160209182019188019080838360005b838110156103f35781810151838201526020016103db565b50505050905090810190601f1680156104205780820380516001836020036101000a031916815260200191505b509850505050505050505060405180910390f35b34801561044057600080fd5b5061060c600480360360a081101561045757600080fd5b61ffff823516919081019060408101602082013564010000000081111561047d57600080fd5b82018360208201111561048f57600080fd5b803590602001918460018302840111640100000000831117156104b157600080fd5b91908080601f016020809104026020016040519081016040528093929190818152602001838380828437600092019190915250929594936020810193503591505064010000000081111561050457600080fd5b82018360208201111561051657600080fd5b8035906020019184600183028401116401000000008311171561053857600080fd5b91908080601f016020809104026020016040519081016040528093929190818152602001838380828437600092019190915250929561ffff85351695909490935060408101925060200135905064010000000081111561059757600080fd5b8201836020820111156105a957600080fd5b803590602001918460018302840111640100000000831117156105cb57600080fd5b91908080601f016020809104026020016040519081016040528093929190818152602001838380828437600092019190915250929550610a73945050505050565b005b6000606080600060606000610621610bb5565b61ffff88166000908152600160208181526040928390208351815460029481161561010002600019011693909304601f8101839004909202830160c090810190945260a0830182815292939092849290918491908401828280156106c65780601f1061069b576101008083540402835291602001916106c6565b820191906000526020600020905b8154815290600101906020018083116106a957829003601f168201915b50505050508152602001600182018054600181600116156101000203166002900480601f0160208091040260200160405190810160405280929190818152602001828054600181600116156101000203166002900480156107685780601f1061073d57610100808354040283529160200191610768565b820191906000526020600020905b81548152906001019060200180831161074b57829003601f168201915b505050918352505060028281015461ffff1660208084019190915260038401805460408051601f6000196001851615610100020190931695909504918201849004840285018401815281855290940193909183018282801561080b5780601f106107e05761010080835404028352916020019161080b565b820191906000526020600020905b8154815290600101906020018083116107ee57829003601f168201915b505050918352505060049190910154602091820152815190820151604083015160608401516080909401519b9c929b919a50985091965090945092505050565b60006020819052908152604090205461ffff1681565b600280548290811061086f57fe5b60009182526020909120015473ffffffffffffffffffffffffffffffffffffffff16905081565b60016020818152600092835260409283902080548451600294821615610100026000190190911693909304601f81018390048302840183019094528383529283918301828280156109285780601f106108fd57610100808354040283529160200191610928565b820191906000526020600020905b81548152906001019060200180831161090b57829003601f168201915b505050505090806001018054600181600116156101000203166002900480601f0160208091040260200160405190810160405280929190818152602001828054600181600116156101000203166002900480156109c65780601f1061099b576101008083540402835291602001916109c6565b820191906000526020600020905b8154815290600101906020018083116109a957829003601f168201915b505050506002838101546003850180546040805160206101006001851615026000190190931695909504601f8101839004830286018301909152808552959661ffff90931695929450909190830182828015610a635780601f10610a3857610100808354040283529160200191610a63565b820191906000526020600020905b815481529060010190602001808311610a4657829003601f168201915b5050505050908060040154905085565b610a7b610bb5565b506040805160a081018252858152602080820186905261ffff8581168385015260608301859052426080840152336000818152808452858120805461ffff1916938c16938417905591825260018352939020825180519394938593610ae4928492910190610be9565b506020828101518051610afd9260018501920190610be9565b50604082015160028201805461ffff191661ffff90921691909117905560608201518051610b35916003840191602090910190610be9565b5060809190910151600490910155600280546001810182556000919091527f405787fa12a823e0f2b7631cc41b3ba8828b3321ca811111fa75cd3aa3bb5ace01805473ffffffffffffffffffffffffffffffffffffffff191673ffffffffffffffffffffffffffffffffffffffff92909216919091179055505050505050565b60a0604051908101604052806060815260200160608152602001600061ffff16815260200160608152602001600081525090565b828054600181600116156101000203166002900490600052602060002090601f016020900481019282601f10610c2a57805160ff1916838001178555610c57565b82800160010185558215610c57579182015b82811115610c57578251825591602001919060010190610c3c565b50610c63929150610c67565b5090565b610c8191905b80821115610c635760008155600101610c6d565b9056fea165627a7a7230582043bee83bc551ce52730f5a59862939e7b3c587f26262d629ca38e9bdb66638920029",
  "source": "pragma solidity >=0.5.1;\r\n\r\ncontract DetailerContract{\r\n     struct Product{\r\n        string commonName;\r\n        string country;\r\n        uint16 quantity;\r\n        string company;\r\n        uint256 datetime;\r\n    }\r\n    \r\n    mapping (address => uint16) public addressToProductId;\r\n    mapping(uint16 => Product) public products;\r\n  \r\n    address[] public detailerAccts;\r\n    \r\n    function addLink(uint16 _prodId, string memory _commonName,string memory _country, uint16 _quantity,string memory _company) public {\r\n        \r\n        Product memory product = Product(_commonName, _country, _quantity,_company,block.timestamp);\r\n        address _address = msg.sender;\r\n        addressToProductId[_address] = _prodId;\r\n        products[_prodId] = product;\r\n        \r\n        detailerAccts.push(_address);\r\n    }\r\n    function getTransactionByProdId(uint16 _prodId) public view returns(uint16,string memory,string memory, uint16,string memory, uint256) {\r\n        Product memory p = products[_prodId];\r\n        return (_prodId,\r\n        p.commonName, \r\n        p.country,\r\n        p.quantity,\r\n        p.company,\r\n        p.datetime);\r\n    }\r\n}",
  "sourcePath": "D:\\python-projects\\blockchain_app\\contracts\\DetailerContract.sol",
  "compiler": {
    "name": "solc",
    "version": "0.5.1+commit.c8a2cb62.Emscripten.clang"
  },
  "schemaVersion": "3.3.2",
  "updatedAt": "2020-12-11T12:52:51.256Z",
  "devdoc": {
    "methods": {}
  },
  "userdoc": {
    "methods": {}
  }
}