{
  "contractName": "UserContract",
  "abi": [
    {
      "constant": true,
      "inputs": [
        {
          "name": "_prodId",
          "type": "uint16"
        }
      ],
      "name": "getProducer",
      "outputs": [
        {
          "name": "",
          "type": "uint16"
        },
        {
          "name": "",
          "type": "string"
        },
        {
          "name": "",
          "type": "string"
        },
        {
          "name": "",
          "type": "string"
        },
        {
          "name": "",
          "type": "uint16"
        },
        {
          "name": "",
          "type": "string"
        },
        {
          "name": "",
          "type": "string"
        },
        {
          "name": "",
          "type": "uint256"
        }
      ],
      "payable": false,
      "stateMutability": "view",
      "type": "function"
    },
    {
      "constant": true,
      "inputs": [
        {
          "name": "_prodId",
          "type": "uint16"
        }
      ],
      "name": "getShipper",
      "outputs": [
        {
          "name": "",
          "type": "uint16"
        },
        {
          "name": "",
          "type": "string"
        },
        {
          "name": "",
          "type": "string"
        },
        {
          "name": "",
          "type": "uint16"
        },
        {
          "name": "",
          "type": "string"
        },
        {
          "name": "",
          "type": "string"
        },
        {
          "name": "",
          "type": "uint256"
        }
      ],
      "payable": false,
      "stateMutability": "view",
      "type": "function"
    },
    {
      "constant": true,
      "inputs": [
        {
          "name": "_prodId",
          "type": "uint16"
        }
      ],
      "name": "getWholesaler",
      "outputs": [
        {
          "name": "",
          "type": "uint16"
        },
        {
          "name": "",
          "type": "string"
        },
        {
          "name": "",
          "type": "string"
        },
        {
          "name": "",
          "type": "uint16"
        },
        {
          "name": "",
          "type": "string"
        },
        {
          "name": "",
          "type": "string"
        },
        {
          "name": "",
          "type": "uint256"
        }
      ],
      "payable": false,
      "stateMutability": "view",
      "type": "function"
    },
    {
      "constant": true,
      "inputs": [
        {
          "name": "_prodId",
          "type": "uint16"
        }
      ],
      "name": "getDetailer",
      "outputs": [
        {
          "name": "",
          "type": "uint16"
        },
        {
          "name": "",
          "type": "string"
        },
        {
          "name": "",
          "type": "string"
        },
        {
          "name": "",
          "type": "uint16"
        },
        {
          "name": "",
          "type": "string"
        },
        {
          "name": "",
          "type": "uint256"
        }
      ],
      "payable": false,
      "stateMutability": "view",
      "type": "function"
    }
  ],
  "bytecode": "0x608060405234801561001057600080fd5b50610d7f806100206000396000f3fe6080604052600436106100425760e060020a60003504631cb7587d811461004757806334343e49146101de57806336e43580146104415780638f01e2a01461063e575b600080fd5b34801561005357600080fd5b506100756004803603602081101561006a57600080fd5b503561ffff1661066c565b604051808761ffff1661ffff16815260200180602001806020018661ffff1661ffff16815260200180602001858152602001848103845289818151815260200191508051906020019080838360005b838110156100dc5781810151838201526020016100c4565b50505050905090810190601f1680156101095780820380516001836020036101000a031916815260200191505b5084810383528851815288516020918201918a019080838360005b8381101561013c578181015183820152602001610124565b50505050905090810190601f1680156101695780820380516001836020036101000a031916815260200191505b50848103825286518152865160209182019188019080838360005b8381101561019c578181015183820152602001610184565b50505050905090810190601f1680156101c95780820380516001836020036101000a031916815260200191505b50995050505050505050505060405180910390f35b3480156101ea57600080fd5b5061020c6004803603602081101561020157600080fd5b503561ffff16610838565b604051808961ffff1661ffff1681526020018060200180602001806020018861ffff1661ffff168152602001806020018060200187815260200186810386528d818151815260200191508051906020019080838360005b8381101561027b578181015183820152602001610263565b50505050905090810190601f1680156102a85780820380516001836020036101000a031916815260200191505b5086810385528c5181528c516020918201918e019080838360005b838110156102db5781810151838201526020016102c3565b50505050905090810190601f1680156103085780820380516001836020036101000a031916815260200191505b5086810384528b5181528b516020918201918d019080838360005b8381101561033b578181015183820152602001610323565b50505050905090810190601f1680156103685780820380516001836020036101000a031916815260200191505b5086810383528951815289516020918201918b019080838360005b8381101561039b578181015183820152602001610383565b50505050905090810190601f1680156103c85780820380516001836020036101000a031916815260200191505b5086810382528851815288516020918201918a019080838360005b838110156103fb5781810151838201526020016103e3565b50505050905090810190601f1680156104285780820380516001836020036101000a031916815260200191505b509d505050505050505050505050505060405180910390f35b34801561044d57600080fd5b5061046f6004803603602081101561046457600080fd5b503561ffff16610aaa565b604051808861ffff1661ffff16815260200180602001806020018761ffff1661ffff168152602001806020018060200186815260200185810385528b818151815260200191508051906020019080838360005b838110156104da5781810151838201526020016104c2565b50505050905090810190601f1680156105075780820380516001836020036101000a031916815260200191505b5085810384528a5181528a516020918201918c019080838360005b8381101561053a578181015183820152602001610522565b50505050905090810190601f1680156105675780820380516001836020036101000a031916815260200191505b5085810383528851815288516020918201918a019080838360005b8381101561059a578181015183820152602001610582565b50505050905090810190601f1680156105c75780820380516001836020036101000a031916815260200191505b50858103825287518152875160209182019189019080838360005b838110156105fa5781810151838201526020016105e2565b50505050905090810190601f1680156106275780820380516001836020036101000a031916815260200191505b509b50505050505050505050505060405180910390f35b34801561064a57600080fd5b5061046f6004803603602081101561066157600080fd5b503561ffff16610cce565b604080517f650c53d600000000000000000000000000000000000000000000000000000000815261ffff831660048201529051600091606091829184918391839173c1ba6143665d85066244cf11c91058b7ab12e504918291829163650c53d69160248083019288929190829003018186803b1580156106eb57600080fd5b505afa1580156106ff573d6000803e3d6000fd5b505050506040513d6000823e601f3d908101601f1916820160405260c081101561072857600080fd5b81516020830180519193928301929164010000000081111561074957600080fd5b8201602081018481111561075c57600080fd5b815164010000000081118282018710171561077657600080fd5b5050929190602001805164010000000081111561079257600080fd5b820160208101848111156107a557600080fd5b81516401000000008111828201871017156107bf57600080fd5b505060208201516040909201805191949293916401000000008111156107e457600080fd5b820160208101848111156107f757600080fd5b815164010000000081118282018710171561081157600080fd5b5050602090910151969e50949c50929a509098509196509194505050505091939550919395565b60006060806060600060608060008073eaa8e712605a6737d30e550055f495a76c233014905060008190508073ffffffffffffffffffffffffffffffffffffffff1663650c53d68c6040518263ffffffff1660e060020a028152600401808261ffff1661ffff16815260200191505060006040518083038186803b1580156108bf57600080fd5b505afa1580156108d3573d6000803e3d6000fd5b505050506040513d6000823e601f3d908101601f191682016040526101008110156108fd57600080fd5b81516020830180519193928301929164010000000081111561091e57600080fd5b8201602081018481111561093157600080fd5b815164010000000081118282018710171561094b57600080fd5b5050929190602001805164010000000081111561096757600080fd5b8201602081018481111561097a57600080fd5b815164010000000081118282018710171561099457600080fd5b505092919060200180516401000000008111156109b057600080fd5b820160208101848111156109c357600080fd5b81516401000000008111828201871017156109dd57600080fd5b50506020820151604090920180519194929391640100000000811115610a0257600080fd5b82016020810184811115610a1557600080fd5b8151640100000000811182820187101715610a2f57600080fd5b50509291906020018051640100000000811115610a4b57600080fd5b82016020810184811115610a5e57600080fd5b8151640100000000811182820187101715610a7857600080fd5b505092919060200180519060200190929190505050995099509950995099509950995099505050919395975091939597565b600060608060006060806000807388bdcd736fd180c8cefd8dc65e37dcab00f958a8905060008190508073ffffffffffffffffffffffffffffffffffffffff1663650c53d68b6040518263ffffffff1660e060020a028152600401808261ffff1661ffff16815260200191505060006040518083038186803b158015610b2f57600080fd5b505afa158015610b43573d6000803e3d6000fd5b505050506040513d6000823e601f3d908101601f1916820160405260e0811015610b6c57600080fd5b815160208301805191939283019291640100000000811115610b8d57600080fd5b82016020810184811115610ba057600080fd5b8151640100000000811182820187101715610bba57600080fd5b50509291906020018051640100000000811115610bd657600080fd5b82016020810184811115610be957600080fd5b8151640100000000811182820187101715610c0357600080fd5b50506020820151604090920180519194929391640100000000811115610c2857600080fd5b82016020810184811115610c3b57600080fd5b8151640100000000811182820187101715610c5557600080fd5b50509291906020018051640100000000811115610c7157600080fd5b82016020810184811115610c8457600080fd5b8151640100000000811182820187101715610c9e57600080fd5b50509291906020018051906020019092919050505098509850985098509850985098505050919395979092949650565b6000606080600060608060008073ed8b9e7b7d615443b60cdd6746752e0bbbe78593905060008190508073ffffffffffffffffffffffffffffffffffffffff1663650c53d68b6040518263ffffffff1660e060020a028152600401808261ffff1661ffff16815260200191505060006040518083038186803b158015610b2f57600080fdfea165627a7a72305820f7bd49bd08c3730a281e8c58905375027b9c5b9b106f2ee07100df84914b1b4b0029",
  "source": "pragma solidity >=0.5.1;\r\n\r\nimport \"./ProducerContract.sol\";\r\nimport \"./ShipperContract.sol\";\r\nimport \"./WholesalerContract.sol\";\r\nimport \"./DetailerContract.sol\";\r\n\r\ncontract UserContract{\r\n    \r\n\r\n    function getProducer(uint16 _prodId) public view returns (uint16,string memory,string memory, string memory, uint16,string memory,string memory, uint256){\r\n        address t = 0xEAA8e712605a6737D30E550055f495A76C233014;\r\n        ProducerContract producer = ProducerContract(t);\r\n        return producer.getTransactionByProdId(_prodId);\r\n    }\r\n\r\n    function getShipper(uint16 _prodId) public view returns (uint16,string memory,string memory, uint16,string memory,string memory, uint256){\r\n        address _t = 0xeD8b9e7B7D615443b60cDD6746752e0BBbE78593;\r\n        ShipperContract shipper = ShipperContract(_t);\r\n        return shipper.getTransactionByProdId(_prodId);\r\n    }\r\n\r\n    function getWholesaler(uint16 _prodId) public view returns (uint16,string memory,string memory, uint16,string memory, string memory, uint256){\r\n        address _t = 0x88bdcD736fd180C8CEfd8DC65E37dCab00F958a8;\r\n        WholesalerContract wholesaler = WholesalerContract(_t);\r\n        return wholesaler.getTransactionByProdId(_prodId);\r\n    }\r\n\r\n    function getDetailer(uint16 _prodId) public view returns (uint16,string memory,string memory, uint16,string memory, uint256){\r\n        address _t = 0xC1Ba6143665D85066244cF11C91058b7Ab12e504;\r\n        DetailerContract detailer = DetailerContract(_t);\r\n        return detailer.getTransactionByProdId(_prodId);\r\n    }\r\n\r\n}",
  "sourcePath": "D:/python-projects/blockchain_app/contracts/UserContract.sol",
  "compiler": {
    "name": "solc",
    "version": "0.5.1+commit.c8a2cb62.Emscripten.clang"
  },
  "schemaVersion": "3.3.2",
  "updatedAt": "2020-12-11T12:53:23.912Z",
  "networkType": "ethereum",
  "devdoc": {
    "methods": {}
  },
  "userdoc": {
    "methods": {}
  }
}