{
  "contractName": "WholesalerContract",
  "abi": [
    {
      "constant": true,
      "inputs": [
        {
          "name": "",
          "type": "address"
        }
      ],
      "name": "addressToProductId",
      "outputs": [
        {
          "name": "",
          "type": "uint16"
        }
      ],
      "payable": false,
      "stateMutability": "view",
      "type": "function"
    },
    {
      "constant": true,
      "inputs": [
        {
          "name": "",
          "type": "uint16"
        }
      ],
      "name": "products",
      "outputs": [
        {
          "name": "commonName",
          "type": "string"
        },
        {
          "name": "country",
          "type": "string"
        },
        {
          "name": "quantity",
          "type": "uint16"
        },
        {
          "name": "company",
          "type": "string"
        },
        {
          "name": "executor",
          "type": "string"
        },
        {
          "name": "datetime",
          "type": "uint256"
        }
      ],
      "payable": false,
      "stateMutability": "view",
      "type": "function"
    },
    {
      "constant": true,
      "inputs": [
        {
          "name": "",
          "type": "uint256"
        }
      ],
      "name": "detailerssAccts",
      "outputs": [
        {
          "name": "",
          "type": "address"
        }
      ],
      "payable": false,
      "stateMutability": "view",
      "type": "function"
    },
    {
      "constant": false,
      "inputs": [
        {
          "name": "_prodId",
          "type": "uint16"
        },
        {
          "name": "_commonName",
          "type": "string"
        },
        {
          "name": "_country",
          "type": "string"
        },
        {
          "name": "_quantity",
          "type": "uint16"
        },
        {
          "name": "_company",
          "type": "string"
        },
        {
          "name": "_executor",
          "type": "string"
        }
      ],
      "name": "addLink",
      "outputs": [],
      "payable": false,
      "stateMutability": "nonpayable",
      "type": "function"
    },
    {
      "constant": true,
      "inputs": [
        {
          "name": "_prodId",
          "type": "uint16"
        }
      ],
      "name": "getTransactionByProdId",
      "outputs": [
        {
          "name": "",
          "type": "uint16"
        },
        {
          "name": "",
          "type": "string"
        },
        {
          "name": "",
          "type": "string"
        },
        {
          "name": "",
          "type": "uint16"
        },
        {
          "name": "",
          "type": "string"
        },
        {
          "name": "",
          "type": "string"
        },
        {
          "name": "",
          "type": "uint256"
        }
      ],
      "payable": false,
      "stateMutability": "view",
      "type": "function"
    }
  ],
  "bytecode": "0x608060405234801561001057600080fd5b50610f5b806100206000396000f3fe608060405260043610610066577c01000000000000000000000000000000000000000000000000000000006000350463650c53d6811461006b57806374db966f14610268578063964c7fc3146102bf578063af7d2378146104ad578063b66486e81461070e575b600080fd5b34801561007757600080fd5b506100996004803603602081101561008e57600080fd5b503561ffff16610761565b604051808861ffff1661ffff16815260200180602001806020018761ffff1661ffff168152602001806020018060200186815260200185810385528b818151815260200191508051906020019080838360005b838110156101045781810151838201526020016100ec565b50505050905090810190601f1680156101315780820380516001836020036101000a031916815260200191505b5085810384528a5181528a516020918201918c019080838360005b8381101561016457818101518382015260200161014c565b50505050905090810190601f1680156101915780820380516001836020036101000a031916815260200191505b5085810383528851815288516020918201918a019080838360005b838110156101c45781810151838201526020016101ac565b50505050905090810190601f1680156101f15780820380516001836020036101000a031916815260200191505b50858103825287518152875160209182019189019080838360005b8381101561022457818101518382015260200161020c565b50505050905090810190601f1680156102515780820380516001836020036101000a031916815260200191505b509b50505050505050505050505060405180910390f35b34801561027457600080fd5b506102a86004803603602081101561028b57600080fd5b503573ffffffffffffffffffffffffffffffffffffffff16610a3b565b6040805161ffff9092168252519081900360200190f35b3480156102cb57600080fd5b506102ed600480360360208110156102e257600080fd5b503561ffff16610a51565b6040518080602001806020018761ffff1661ffff168152602001806020018060200186815260200185810385528b818151815260200191508051906020019080838360005b8381101561034a578181015183820152602001610332565b50505050905090810190601f1680156103775780820380516001836020036101000a031916815260200191505b5085810384528a5181528a516020918201918c019080838360005b838110156103aa578181015183820152602001610392565b50505050905090810190601f1680156103d75780820380516001836020036101000a031916815260200191505b5085810383528851815288516020918201918a019080838360005b8381101561040a5781810151838201526020016103f2565b50505050905090810190601f1680156104375780820380516001836020036101000a031916815260200191505b50858103825287518152875160209182019189019080838360005b8381101561046a578181015183820152602001610452565b50505050905090810190601f1680156104975780820380516001836020036101000a031916815260200191505b509a505050505050505050505060405180910390f35b3480156104b957600080fd5b5061070c600480360360c08110156104d057600080fd5b61ffff82351691908101906040810160208201356401000000008111156104f657600080fd5b82018360208201111561050857600080fd5b8035906020019184600183028401116401000000008311171561052a57600080fd5b91908080601f016020809104026020016040519081016040528093929190818152602001838380828437600092019190915250929594936020810193503591505064010000000081111561057d57600080fd5b82018360208201111561058f57600080fd5b803590602001918460018302840111640100000000831117156105b157600080fd5b91908080601f016020809104026020016040519081016040528093929190818152602001838380828437600092019190915250929561ffff85351695909490935060408101925060200135905064010000000081111561061057600080fd5b82018360208201111561062257600080fd5b8035906020019184600183028401116401000000008311171561064457600080fd5b91908080601f016020809104026020016040519081016040528093929190818152602001838380828437600092019190915250929594936020810193503591505064010000000081111561069757600080fd5b8201836020820111156106a957600080fd5b803590602001918460018302840111640100000000831117156106cb57600080fd5b91908080601f016020809104026020016040519081016040528093929190818152602001838380828437600092019190915250929550610cbe945050505050565b005b34801561071a57600080fd5b506107386004803603602081101561073157600080fd5b5035610e24565b6040805173ffffffffffffffffffffffffffffffffffffffff9092168252519081900360200190f35b600060608060006060806000610775610e59565b61ffff89166000908152600160208181526040928390208351815460029481161561010002600019011693909304601f8101839004909202830160e090810190945260c08301828152929390928492909184919084018282801561081a5780601f106107ef5761010080835404028352916020019161081a565b820191906000526020600020905b8154815290600101906020018083116107fd57829003601f168201915b50505050508152602001600182018054600181600116156101000203166002900480601f0160208091040260200160405190810160405280929190818152602001828054600181600116156101000203166002900480156108bc5780601f10610891576101008083540402835291602001916108bc565b820191906000526020600020905b81548152906001019060200180831161089f57829003601f168201915b505050918352505060028281015461ffff1660208084019190915260038401805460408051601f6000196001851615610100020190931695909504918201849004840285018401815281855290940193909183018282801561095f5780601f106109345761010080835404028352916020019161095f565b820191906000526020600020905b81548152906001019060200180831161094257829003601f168201915b505050918352505060048201805460408051602060026001851615610100026000190190941693909304601f81018490048402820184019092528181529382019392918301828280156109f35780601f106109c8576101008083540402835291602001916109f3565b820191906000526020600020905b8154815290600101906020018083116109d657829003601f168201915b50505091835250506005919091015460209182015281519082015160408301516060840151608085015160a0909501519d9e939d929c50909a50985091965090945092505050565b60006020819052908152604090205461ffff1681565b60016020818152600092835260409283902080548451600294821615610100026000190190911693909304601f8101839004830284018301909452838352928391830182828015610ae35780601f10610ab857610100808354040283529160200191610ae3565b820191906000526020600020905b815481529060010190602001808311610ac657829003601f168201915b505050505090806001018054600181600116156101000203166002900480601f016020809104026020016040519081016040528092919081815260200182805460018160011615610100020316600290048015610b815780601f10610b5657610100808354040283529160200191610b81565b820191906000526020600020905b815481529060010190602001808311610b6457829003601f168201915b505050506002838101546003850180546040805160206101006001851615026000190190931695909504601f8101839004830286018301909152808552959661ffff90931695929450909190830182828015610c1e5780601f10610bf357610100808354040283529160200191610c1e565b820191906000526020600020905b815481529060010190602001808311610c0157829003601f168201915b5050505060048301805460408051602060026001851615610100026000190190941693909304601f8101849004840282018401909252818152949594935090830182828015610cae5780601f10610c8357610100808354040283529160200191610cae565b820191906000526020600020905b815481529060010190602001808311610c9157829003601f168201915b5050505050908060050154905086565b610cc6610e59565b506040805160c081018252868152602080820187905261ffff8681168385015260608301869052608083018590524260a0840152336000818152808452858120805461ffff1916938d16938417905591825260018352939020825180519394938593610d36928492910190610e94565b506020828101518051610d4f9260018501920190610e94565b50604082015160028201805461ffff191661ffff90921691909117905560608201518051610d87916003840191602090910190610e94565b5060808201518051610da3916004840191602090910190610e94565b5060a09190910151600590910155600280546001810182556000919091527f405787fa12a823e0f2b7631cc41b3ba8828b3321ca811111fa75cd3aa3bb5ace01805473ffffffffffffffffffffffffffffffffffffffff191673ffffffffffffffffffffffffffffffffffffffff9290921691909117905550505050505050565b6002805482908110610e3257fe5b60009182526020909120015473ffffffffffffffffffffffffffffffffffffffff16905081565b60c0604051908101604052806060815260200160608152602001600061ffff1681526020016060815260200160608152602001600081525090565b828054600181600116156101000203166002900490600052602060002090601f016020900481019282601f10610ed557805160ff1916838001178555610f02565b82800160010185558215610f02579182015b82811115610f02578251825591602001919060010190610ee7565b50610f0e929150610f12565b5090565b610f2c91905b80821115610f0e5760008155600101610f18565b9056fea165627a7a72305820fe3979e88165d528c2b48c258297accb8b3235f4286a950ca183f96e0a7b15770029",
  "source": "pragma solidity >=0.5.1;\r\n\r\ncontract WholesalerContract{\r\n     struct Product{\r\n        string commonName;\r\n        string country;\r\n        uint16 quantity;\r\n        string company;\r\n        string executor;\r\n        uint256 datetime;\r\n    }\r\n    \r\n    mapping (address => uint16) public addressToProductId;\r\n    mapping(uint16 => Product) public products;\r\n  \r\n    address[] public detailerssAccts;\r\n    \r\n    function addLink(uint16 _prodId, string memory _commonName,string memory _country, uint16 _quantity,string memory _company, string memory _executor) public {\r\n        Product memory product = Product(_commonName, _country, _quantity,_company,_executor,block.timestamp);\r\n        address _address = msg.sender;\r\n        addressToProductId[_address] = _prodId;\r\n        products[_prodId] = product;\r\n    \r\n        detailerssAccts.push(_address);\r\n    }\r\n    function getTransactionByProdId(uint16 _prodId) public view returns(uint16,string memory,string memory, uint16,string memory, string memory, uint256) {\r\n        Product memory p = products[_prodId];\r\n        return (_prodId,\r\n        p.commonName, \r\n        p.country,\r\n        p.quantity,\r\n        p.company,\r\n        p.executor,\r\n        p.datetime);\r\n    }\r\n}",
  "sourcePath": "D:\\python-projects\\blockchain_app\\contracts\\WholesalerContract.sol",
  "compiler": {
    "name": "solc",
    "version": "0.5.1+commit.c8a2cb62.Emscripten.clang"
  },
  "schemaVersion": "3.3.2",
  "updatedAt": "2020-12-11T12:52:51.264Z",
  "devdoc": {
    "methods": {}
  },
  "userdoc": {
    "methods": {}
  }
}