{
  "contractName": "ProducerContract",
  "abi": [
    {
      "constant": true,
      "inputs": [
        {
          "name": "",
          "type": "uint256"
        }
      ],
      "name": "producersAccts",
      "outputs": [
        {
          "name": "",
          "type": "address"
        }
      ],
      "payable": false,
      "stateMutability": "view",
      "type": "function"
    },
    {
      "constant": true,
      "inputs": [
        {
          "name": "",
          "type": "address"
        }
      ],
      "name": "addressToProductId",
      "outputs": [
        {
          "name": "",
          "type": "uint16"
        }
      ],
      "payable": false,
      "stateMutability": "view",
      "type": "function"
    },
    {
      "constant": true,
      "inputs": [
        {
          "name": "",
          "type": "uint16"
        }
      ],
      "name": "products",
      "outputs": [
        {
          "name": "commonName",
          "type": "string"
        },
        {
          "name": "country",
          "type": "string"
        },
        {
          "name": "expiryDate",
          "type": "string"
        },
        {
          "name": "quantity",
          "type": "uint16"
        },
        {
          "name": "company",
          "type": "string"
        },
        {
          "name": "executor",
          "type": "string"
        },
        {
          "name": "datetime",
          "type": "uint256"
        }
      ],
      "payable": false,
      "stateMutability": "view",
      "type": "function"
    },
    {
      "constant": false,
      "inputs": [
        {
          "name": "_prodId",
          "type": "uint16"
        },
        {
          "name": "_commonName",
          "type": "string"
        },
        {
          "name": "_country",
          "type": "string"
        },
        {
          "name": "_expiryDate",
          "type": "string"
        },
        {
          "name": "_quantity",
          "type": "uint16"
        },
        {
          "name": "_company",
          "type": "string"
        },
        {
          "name": "_executor",
          "type": "string"
        }
      ],
      "name": "addLink",
      "outputs": [],
      "payable": false,
      "stateMutability": "nonpayable",
      "type": "function"
    },
    {
      "constant": true,
      "inputs": [
        {
          "name": "_prodId",
          "type": "uint16"
        }
      ],
      "name": "getTransactionByProdId",
      "outputs": [
        {
          "name": "",
          "type": "uint16"
        },
        {
          "name": "",
          "type": "string"
        },
        {
          "name": "",
          "type": "string"
        },
        {
          "name": "",
          "type": "string"
        },
        {
          "name": "",
          "type": "uint16"
        },
        {
          "name": "",
          "type": "string"
        },
        {
          "name": "",
          "type": "string"
        },
        {
          "name": "",
          "type": "uint256"
        }
      ],
      "payable": false,
      "stateMutability": "view",
      "type": "function"
    }
  ],
  "bytecode": "0x608060405234801561001057600080fd5b50611215806100206000396000f3fe608060405260043610610066577c0100000000000000000000000000000000000000000000000000000000600035046320ec4510811461006b578063650c53d6146100be57806374db966f14610321578063964c7fc314610378578063a164ce28146105cc575b600080fd5b34801561007757600080fd5b506100956004803603602081101561008e57600080fd5b50356108b4565b6040805173ffffffffffffffffffffffffffffffffffffffff9092168252519081900360200190f35b3480156100ca57600080fd5b506100ec600480360360208110156100e157600080fd5b503561ffff166108e9565b604051808961ffff1661ffff1681526020018060200180602001806020018861ffff1661ffff168152602001806020018060200187815260200186810386528d818151815260200191508051906020019080838360005b8381101561015b578181015183820152602001610143565b50505050905090810190601f1680156101885780820380516001836020036101000a031916815260200191505b5086810385528c5181528c516020918201918e019080838360005b838110156101bb5781810151838201526020016101a3565b50505050905090810190601f1680156101e85780820380516001836020036101000a031916815260200191505b5086810384528b5181528b516020918201918d019080838360005b8381101561021b578181015183820152602001610203565b50505050905090810190601f1680156102485780820380516001836020036101000a031916815260200191505b5086810383528951815289516020918201918b019080838360005b8381101561027b578181015183820152602001610263565b50505050905090810190601f1680156102a85780820380516001836020036101000a031916815260200191505b5086810382528851815288516020918201918a019080838360005b838110156102db5781810151838201526020016102c3565b50505050905090810190601f1680156103085780820380516001836020036101000a031916815260200191505b509d505050505050505050505050505060405180910390f35b34801561032d57600080fd5b506103616004803603602081101561034457600080fd5b503573ffffffffffffffffffffffffffffffffffffffff16610c6e565b6040805161ffff9092168252519081900360200190f35b34801561038457600080fd5b506103a66004803603602081101561039b57600080fd5b503561ffff16610c84565b604051808060200180602001806020018861ffff1661ffff168152602001806020018060200187815260200186810386528d818151815260200191508051906020019080838360005b838110156104075781810151838201526020016103ef565b50505050905090810190601f1680156104345780820380516001836020036101000a031916815260200191505b5086810385528c5181528c516020918201918e019080838360005b8381101561046757818101518382015260200161044f565b50505050905090810190601f1680156104945780820380516001836020036101000a031916815260200191505b5086810384528b5181528b516020918201918d019080838360005b838110156104c75781810151838201526020016104af565b50505050905090810190601f1680156104f45780820380516001836020036101000a031916815260200191505b5086810383528951815289516020918201918b019080838360005b8381101561052757818101518382015260200161050f565b50505050905090810190601f1680156105545780820380516001836020036101000a031916815260200191505b5086810382528851815288516020918201918a019080838360005b8381101561058757818101518382015260200161056f565b50505050905090810190601f1680156105b45780820380516001836020036101000a031916815260200191505b509c5050505050505050505050505060405180910390f35b3480156105d857600080fd5b506108b2600480360360e08110156105ef57600080fd5b61ffff823516919081019060408101602082013564010000000081111561061557600080fd5b82018360208201111561062757600080fd5b8035906020019184600183028401116401000000008311171561064957600080fd5b91908080601f016020809104026020016040519081016040528093929190818152602001838380828437600092019190915250929594936020810193503591505064010000000081111561069c57600080fd5b8201836020820111156106ae57600080fd5b803590602001918460018302840111640100000000831117156106d057600080fd5b91908080601f016020809104026020016040519081016040528093929190818152602001838380828437600092019190915250929594936020810193503591505064010000000081111561072357600080fd5b82018360208201111561073557600080fd5b8035906020019184600183028401116401000000008311171561075757600080fd5b91908080601f016020809104026020016040519081016040528093929190818152602001838380828437600092019190915250929561ffff8535169590949093506040810192506020013590506401000000008111156107b657600080fd5b8201836020820111156107c857600080fd5b803590602001918460018302840111640100000000831117156107ea57600080fd5b91908080601f016020809104026020016040519081016040528093929190818152602001838380828437600092019190915250929594936020810193503591505064010000000081111561083d57600080fd5b82018360208201111561084f57600080fd5b8035906020019184600183028401116401000000008311171561087157600080fd5b91908080601f016020809104026020016040519081016040528093929190818152602001838380828437600092019190915250929550610f82945050505050565b005b60028054829081106108c257fe5b60009182526020909120015473ffffffffffffffffffffffffffffffffffffffff16905081565b60006060806060600060608060006108ff61110c565b61ffff8a1660009081526001602081815260409283902083518154601f600260001961010097841615880201909216919091049081018490049093028101840190945260e084018281529092849284918401828280156109a05780601f10610975576101008083540402835291602001916109a0565b820191906000526020600020905b81548152906001019060200180831161098357829003601f168201915b50505050508152602001600182018054600181600116156101000203166002900480601f016020809104026020016040519081016040528092919081815260200182805460018160011615610100020316600290048015610a425780601f10610a1757610100808354040283529160200191610a42565b820191906000526020600020905b815481529060010190602001808311610a2557829003601f168201915b5050509183525050600282810180546040805160206001841615610100026000190190931694909404601f81018390048302850183019091528084529381019390830182828015610ad45780601f10610aa957610100808354040283529160200191610ad4565b820191906000526020600020905b815481529060010190602001808311610ab757829003601f168201915b5050509183525050600382015461ffff1660208083019190915260048301805460408051601f60026000196001861615610100020190941693909304928301859004850281018501825282815294019392830182828015610b765780601f10610b4b57610100808354040283529160200191610b76565b820191906000526020600020905b815481529060010190602001808311610b5957829003601f168201915b505050918352505060058201805460408051602060026001851615610100026000190190941693909304601f8101849004840282018401909252818152938201939291830182828015610c0a5780601f10610bdf57610100808354040283529160200191610c0a565b820191906000526020600020905b815481529060010190602001808311610bed57829003601f168201915b50505050508152602001600682015481525050905089816000015182602001518360400151846060015185608001518660a001518760c001518696508595508494508292508191509850985098509850985098509850985050919395975091939597565b60006020819052908152604090205461ffff1681565b60016020818152600092835260409283902080548451600294821615610100026000190190911693909304601f8101839004830284018301909452838352928391830182828015610d165780601f10610ceb57610100808354040283529160200191610d16565b820191906000526020600020905b815481529060010190602001808311610cf957829003601f168201915b505050505090806001018054600181600116156101000203166002900480601f016020809104026020016040519081016040528092919081815260200182805460018160011615610100020316600290048015610db45780601f10610d8957610100808354040283529160200191610db4565b820191906000526020600020905b815481529060010190602001808311610d9757829003601f168201915b50505060028085018054604080516020601f6000196101006001871615020190941695909504928301859004850281018501909152818152959695945090925090830182828015610e465780601f10610e1b57610100808354040283529160200191610e46565b820191906000526020600020905b815481529060010190602001808311610e2957829003601f168201915b50505050600383015460048401805460408051602060026101006001861615026000190190941693909304601f8101849004840282018401909252818152959661ffff9094169593945090830182828015610ee25780601f10610eb757610100808354040283529160200191610ee2565b820191906000526020600020905b815481529060010190602001808311610ec557829003601f168201915b5050505060058301805460408051602060026001851615610100026000190190941693909304601f8101849004840282018401909252818152949594935090830182828015610f725780601f10610f4757610100808354040283529160200191610f72565b820191906000526020600020905b815481529060010190602001808311610f5557829003601f168201915b5050505050908060060154905087565b610f8a61110c565b506040805160e081018252878152602080820188905281830187905261ffff86811660608401526080830186905260a083018590524260c0840152336000818152808452858120805461ffff1916938e1693841790559182526001835293902082518051939493859361100192849291019061114e565b50602082810151805161101a926001850192019061114e565b506040820151805161103691600284019160209091019061114e565b50606082015160038201805461ffff191661ffff9092169190911790556080820151805161106e91600484019160209091019061114e565b5060a0820151805161108a91600584019160209091019061114e565b5060c09190910151600690910155600280546001810182556000919091527f405787fa12a823e0f2b7631cc41b3ba8828b3321ca811111fa75cd3aa3bb5ace01805473ffffffffffffffffffffffffffffffffffffffff191673ffffffffffffffffffffffffffffffffffffffff929092169190911790555050505050505050565b60e060405190810160405280606081526020016060815260200160608152602001600061ffff1681526020016060815260200160608152602001600081525090565b828054600181600116156101000203166002900490600052602060002090601f016020900481019282601f1061118f57805160ff19168380011785556111bc565b828001600101855582156111bc579182015b828111156111bc5782518255916020019190600101906111a1565b506111c89291506111cc565b5090565b6111e691905b808211156111c857600081556001016111d2565b9056fea165627a7a72305820fcc59c8a9a72ce38aea0f973fd97c13bbd831d2f4212d39df18f8c97e6bf51bd0029",
  "source": "pragma solidity >=0.5.1;\r\n\r\ncontract ProducerContract{\r\n     struct Product{\r\n        string commonName;\r\n        string country;\r\n        string expiryDate;\r\n        uint16 quantity;\r\n        string company;\r\n        string executor;\r\n        uint256 datetime;\r\n    }\r\n    \r\n    mapping (address => uint16) public addressToProductId;\r\n    mapping(uint16 => Product) public products;\r\n  \r\n    address[] public producersAccts;\r\n    \r\n    function addLink(uint16 _prodId, string memory _commonName,string memory _country,string memory _expiryDate, uint16 _quantity,string memory _company, string memory _executor) public {\r\n        Product memory product = Product(_commonName, _country, _expiryDate,_quantity,_company,_executor, block.timestamp);\r\n        address _address = msg.sender;\r\n        addressToProductId[_address] = _prodId;\r\n        products[_prodId] = product;\r\n        \r\n        producersAccts.push(_address);\r\n    }\r\n    function getTransactionByProdId(uint16 _prodId) public view returns(uint16,string memory,string memory, string memory, uint16,string memory,string memory, uint256) {\r\n        Product memory p = products[_prodId];\r\n        return (_prodId,\r\n        p.commonName, \r\n        p.country,\r\n        p.expiryDate,\r\n        p.quantity,\r\n        p.company,\r\n        p.executor,\r\n        p.datetime);\r\n    }\r\n}",
  "sourcePath": "D:\\python-projects\\blockchain_app\\contracts\\ProducerContract.sol",
  "compiler": {
    "name": "solc",
    "version": "0.5.1+commit.c8a2cb62.Emscripten.clang"
  },
  "schemaVersion": "3.3.2",
  "updatedAt": "2020-12-11T12:52:51.259Z",
  "devdoc": {
    "methods": {}
  },
  "userdoc": {
    "methods": {}
  }
}